{
  "contractName": "HelloWorld",
  "abi": [
    {
      "constant": false,
      "inputs": [],
      "name": "SayHello",
      "outputs": [
        {
          "name": "",
          "type": "string"
        }
      ],
      "payable": false,
      "stateMutability": "nonpayable",
      "type": "function"
    }
  ],
  "bytecode": "0x608060405234801561001057600080fd5b5061013f806100206000396000f300608060405260043610610041576000357c0100000000000000000000000000000000000000000000000000000000900463ffffffff1680633acb315014610046575b600080fd5b34801561005257600080fd5b5061005b6100d6565b6040518080602001828103825283818151815260200191508051906020019080838360005b8381101561009b578082015181840152602081019050610080565b50505050905090810190601f1680156100c85780820380516001836020036101000a031916815260200191505b509250505060405180910390f35b60606040805190810160405280600b81526020017f48656c6c6f20576f726c640000000000000000000000000000000000000000008152509050905600a165627a7a7230582033486f07b44c1622108a3ea9e3c2d9db6c7e4f7eafa35e391805c29c6cb9ec0d0029",
  "source": "pragma solidity ^0.4.4;\r\ncontract HelloWorld\r\n{\r\n    function SayHello() returns (string)\r\n    {\r\n        return (\"Hello World\");\r\n    }\r\n}",
  "sourcePath": "C:\\Users\\IIC Admin\\Desktop\\HelloWorld\\contracts\\helloworld.sol",
  "compiler": {
    "name": "solc",
    "version": "0.4.24+commit.e67f0147.Emscripten.clang"
  },
  "schemaVersion": "2.0.1",
  "updatedAt": "2018-07-19T18:29:39.368Z"
}